{
  "_format": "hh-sol-artifact-1",
  "contractName": "TicketMarketplace",
  "sourceName": "contracts/TicketMarketplace.sol",
  "abi": [
    {
      "inputs": [
        {
          "internalType": "address",
          "name": "_oracleAddress",
          "type": "address"
        }
      ],
      "stateMutability": "nonpayable",
      "type": "constructor"
    },
    {
      "inputs": [
        {
          "internalType": "address",
          "name": "sender",
          "type": "address"
        },
        {
          "internalType": "uint256",
          "name": "tokenId",
          "type": "uint256"
        },
        {
          "internalType": "address",
          "name": "owner",
          "type": "address"
        }
      ],
      "name": "ERC721IncorrectOwner",
      "type": "error"
    },
    {
      "inputs": [
        {
          "internalType": "address",
          "name": "operator",
          "type": "address"
        },
        {
          "internalType": "uint256",
          "name": "tokenId",
          "type": "uint256"
        }
      ],
      "name": "ERC721InsufficientApproval",
      "type": "error"
    },
    {
      "inputs": [
        {
          "internalType": "address",
          "name": "approver",
          "type": "address"
        }
      ],
      "name": "ERC721InvalidApprover",
      "type": "error"
    },
    {
      "inputs": [
        {
          "internalType": "address",
          "name": "operator",
          "type": "address"
        }
      ],
      "name": "ERC721InvalidOperator",
      "type": "error"
    },
    {
      "inputs": [
        {
          "internalType": "address",
          "name": "owner",
          "type": "address"
        }
      ],
      "name": "ERC721InvalidOwner",
      "type": "error"
    },
    {
      "inputs": [
        {
          "internalType": "address",
          "name": "receiver",
          "type": "address"
        }
      ],
      "name": "ERC721InvalidReceiver",
      "type": "error"
    },
    {
      "inputs": [
        {
          "internalType": "address",
          "name": "sender",
          "type": "address"
        }
      ],
      "name": "ERC721InvalidSender",
      "type": "error"
    },
    {
      "inputs": [
        {
          "internalType": "uint256",
          "name": "tokenId",
          "type": "uint256"
        }
      ],
      "name": "ERC721NonexistentToken",
      "type": "error"
    },
    {
      "anonymous": false,
      "inputs": [
        {
          "indexed": true,
          "internalType": "address",
          "name": "owner",
          "type": "address"
        },
        {
          "indexed": true,
          "internalType": "address",
          "name": "approved",
          "type": "address"
        },
        {
          "indexed": true,
          "internalType": "uint256",
          "name": "tokenId",
          "type": "uint256"
        }
      ],
      "name": "Approval",
      "type": "event"
    },
    {
      "anonymous": false,
      "inputs": [
        {
          "indexed": true,
          "internalType": "address",
          "name": "owner",
          "type": "address"
        },
        {
          "indexed": true,
          "internalType": "address",
          "name": "operator",
          "type": "address"
        },
        {
          "indexed": false,
          "internalType": "bool",
          "name": "approved",
          "type": "bool"
        }
      ],
      "name": "ApprovalForAll",
      "type": "event"
    },
    {
      "anonymous": false,
      "inputs": [
        {
          "indexed": false,
          "internalType": "uint256",
          "name": "_fromTokenId",
          "type": "uint256"
        },
        {
          "indexed": false,
          "internalType": "uint256",
          "name": "_toTokenId",
          "type": "uint256"
        }
      ],
      "name": "BatchMetadataUpdate",
      "type": "event"
    },
    {
      "anonymous": false,
      "inputs": [
        {
          "indexed": true,
          "internalType": "uint256",
          "name": "ticketId",
          "type": "uint256"
        }
      ],
      "name": "DynamicPriceRequested",
      "type": "event"
    },
    {
      "anonymous": false,
      "inputs": [
        {
          "indexed": false,
          "internalType": "uint256",
          "name": "_tokenId",
          "type": "uint256"
        }
      ],
      "name": "MetadataUpdate",
      "type": "event"
    },
    {
      "anonymous": false,
      "inputs": [
        {
          "indexed": true,
          "internalType": "uint256",
          "name": "ticketId",
          "type": "uint256"
        },
        {
          "indexed": true,
          "internalType": "address",
          "name": "seller",
          "type": "address"
        }
      ],
      "name": "ProductAdded",
      "type": "event"
    },
    {
      "anonymous": false,
      "inputs": [
        {
          "indexed": true,
          "internalType": "uint256",
          "name": "ticketId",
          "type": "uint256"
        },
        {
          "indexed": false,
          "internalType": "uint256",
          "name": "price",
          "type": "uint256"
        },
        {
          "indexed": true,
          "internalType": "address",
          "name": "buyer",
          "type": "address"
        }
      ],
      "name": "ProductBought",
      "type": "event"
    },
    {
      "anonymous": false,
      "inputs": [
        {
          "indexed": true,
          "internalType": "uint256",
          "name": "ticketId",
          "type": "uint256"
        },
        {
          "indexed": true,
          "internalType": "address",
          "name": "seller",
          "type": "address"
        }
      ],
      "name": "SellCancelled",
      "type": "event"
    },
    {
      "anonymous": false,
      "inputs": [
        {
          "indexed": true,
          "internalType": "uint256",
          "name": "tokenId",
          "type": "uint256"
        },
        {
          "indexed": true,
          "internalType": "uint256",
          "name": "eventId",
          "type": "uint256"
        },
        {
          "indexed": false,
          "internalType": "string",
          "name": "zone",
          "type": "string"
        },
        {
          "indexed": false,
          "internalType": "string",
          "name": "seat",
          "type": "string"
        }
      ],
      "name": "TicketCreated",
      "type": "event"
    },
    {
      "anonymous": false,
      "inputs": [
        {
          "indexed": true,
          "internalType": "uint256",
          "name": "tokenId",
          "type": "uint256"
        },
        {
          "indexed": true,
          "internalType": "uint256",
          "name": "EventID",
          "type": "uint256"
        },
        {
          "indexed": false,
          "internalType": "address",
          "name": "creator",
          "type": "address"
        }
      ],
      "name": "TicketMinted",
      "type": "event"
    },
    {
      "anonymous": false,
      "inputs": [
        {
          "indexed": true,
          "internalType": "address",
          "name": "from",
          "type": "address"
        },
        {
          "indexed": true,
          "internalType": "address",
          "name": "to",
          "type": "address"
        },
        {
          "indexed": true,
          "internalType": "uint256",
          "name": "tokenId",
          "type": "uint256"
        }
      ],
      "name": "Transfer",
      "type": "event"
    },
    {
      "inputs": [
        {
          "internalType": "uint256",
          "name": "ticketId",
          "type": "uint256"
        }
      ],
      "name": "addProduct",
      "outputs": [],
      "stateMutability": "nonpayable",
      "type": "function"
    },
    {
      "inputs": [
        {
          "internalType": "address",
          "name": "to",
          "type": "address"
        },
        {
          "internalType": "uint256",
          "name": "tokenId",
          "type": "uint256"
        }
      ],
      "name": "approve",
      "outputs": [],
      "stateMutability": "nonpayable",
      "type": "function"
    },
    {
      "inputs": [
        {
          "internalType": "address",
          "name": "owner",
          "type": "address"
        }
      ],
      "name": "balanceOf",
      "outputs": [
        {
          "internalType": "uint256",
          "name": "",
          "type": "uint256"
        }
      ],
      "stateMutability": "view",
      "type": "function"
    },
    {
      "inputs": [
        {
          "internalType": "uint256",
          "name": "ticketId",
          "type": "uint256"
        }
      ],
      "name": "buyProduct",
      "outputs": [],
      "stateMutability": "payable",
      "type": "function"
    },
    {
      "inputs": [
        {
          "internalType": "uint256",
          "name": "",
          "type": "uint256"
        }
      ],
      "name": "claimableByAccount",
      "outputs": [
        {
          "internalType": "address",
          "name": "",
          "type": "address"
        }
      ],
      "stateMutability": "view",
      "type": "function"
    },
    {
      "inputs": [
        {
          "internalType": "uint256",
          "name": "ticketId",
          "type": "uint256"
        },
        {
          "internalType": "uint256",
          "name": "eventId",
          "type": "uint256"
        },
        {
          "internalType": "string",
          "name": "eventName",
          "type": "string"
        },
        {
          "internalType": "uint256[]",
          "name": "dates",
          "type": "uint256[]"
        },
        {
          "internalType": "string",
          "name": "zone",
          "type": "string"
        },
        {
          "internalType": "string",
          "name": "seat",
          "type": "string"
        },
        {
          "internalType": "uint256",
          "name": "priceSeat",
          "type": "uint256"
        },
        {
          "internalType": "uint256",
          "name": "limit",
          "type": "uint256"
        },
        {
          "internalType": "address",
          "name": "owner",
          "type": "address"
        },
        {
          "internalType": "bool",
          "name": "isHold",
          "type": "bool"
        }
      ],
      "name": "createTicket",
      "outputs": [
        {
          "internalType": "uint256",
          "name": "",
          "type": "uint256"
        }
      ],
      "stateMutability": "payable",
      "type": "function"
    },
    {
      "inputs": [
        {
          "internalType": "uint256",
          "name": "",
          "type": "uint256"
        }
      ],
      "name": "dynamicPrices",
      "outputs": [
        {
          "internalType": "uint256",
          "name": "",
          "type": "uint256"
        }
      ],
      "stateMutability": "view",
      "type": "function"
    },
    {
      "inputs": [
        {
          "internalType": "uint256",
          "name": "ticketId",
          "type": "uint256"
        },
        {
          "internalType": "uint256",
          "name": "price",
          "type": "uint256"
        }
      ],
      "name": "dynamicPricingCallback",
      "outputs": [],
      "stateMutability": "nonpayable",
      "type": "function"
    },
    {
      "inputs": [
        {
          "internalType": "uint256",
          "name": "tokenId",
          "type": "uint256"
        }
      ],
      "name": "getApproved",
      "outputs": [
        {
          "internalType": "address",
          "name": "",
          "type": "address"
        }
      ],
      "stateMutability": "view",
      "type": "function"
    },
    {
      "inputs": [],
      "name": "getListedProducts",
      "outputs": [
        {
          "internalType": "uint256[]",
          "name": "",
          "type": "uint256[]"
        }
      ],
      "stateMutability": "view",
      "type": "function"
    },
    {
      "inputs": [
        {
          "internalType": "uint256",
          "name": "tokenId",
          "type": "uint256"
        }
      ],
      "name": "getTicket",
      "outputs": [
        {
          "components": [
            {
              "internalType": "uint256",
              "name": "eventId",
              "type": "uint256"
            },
            {
              "internalType": "string",
              "name": "eventName",
              "type": "string"
            },
            {
              "internalType": "uint256",
              "name": "dateEvent",
              "type": "uint256"
            },
            {
              "internalType": "string",
              "name": "zone",
              "type": "string"
            },
            {
              "internalType": "string",
              "name": "seat",
              "type": "string"
            },
            {
              "internalType": "address",
              "name": "owner",
              "type": "address"
            },
            {
              "internalType": "address",
              "name": "creator",
              "type": "address"
            },
            {
              "internalType": "uint256",
              "name": "priceSeat",
              "type": "uint256"
            },
            {
              "internalType": "uint256",
              "name": "priceGas",
              "type": "uint256"
            }
          ],
          "internalType": "struct TicketNFT.Ticket",
          "name": "",
          "type": "tuple"
        }
      ],
      "stateMutability": "view",
      "type": "function"
    },
    {
      "inputs": [],
      "name": "getTotalTickets",
      "outputs": [
        {
          "internalType": "uint256",
          "name": "",
          "type": "uint256"
        }
      ],
      "stateMutability": "view",
      "type": "function"
    },
    {
      "inputs": [
        {
          "internalType": "uint256",
          "name": "",
          "type": "uint256"
        }
      ],
      "name": "hasBeenListed",
      "outputs": [
        {
          "internalType": "bool",
          "name": "",
          "type": "bool"
        }
      ],
      "stateMutability": "view",
      "type": "function"
    },
    {
      "inputs": [
        {
          "internalType": "address",
          "name": "owner",
          "type": "address"
        },
        {
          "internalType": "address",
          "name": "operator",
          "type": "address"
        }
      ],
      "name": "isApprovedForAll",
      "outputs": [
        {
          "internalType": "bool",
          "name": "",
          "type": "bool"
        }
      ],
      "stateMutability": "view",
      "type": "function"
    },
    {
      "inputs": [
        {
          "internalType": "uint256",
          "name": "tokenId",
          "type": "uint256"
        }
      ],
      "name": "isTicketValid",
      "outputs": [
        {
          "internalType": "bool",
          "name": "",
          "type": "bool"
        }
      ],
      "stateMutability": "view",
      "type": "function"
    },
    {
      "inputs": [
        {
          "internalType": "uint256",
          "name": "",
          "type": "uint256"
        }
      ],
      "name": "listProduct",
      "outputs": [
        {
          "internalType": "uint256",
          "name": "ticketId",
          "type": "uint256"
        },
        {
          "internalType": "address",
          "name": "owner",
          "type": "address"
        }
      ],
      "stateMutability": "view",
      "type": "function"
    },
    {
      "inputs": [],
      "name": "name",
      "outputs": [
        {
          "internalType": "string",
          "name": "",
          "type": "string"
        }
      ],
      "stateMutability": "view",
      "type": "function"
    },
    {
      "inputs": [],
      "name": "oracle",
      "outputs": [
        {
          "internalType": "contract DynamicPricingOracle",
          "name": "",
          "type": "address"
        }
      ],
      "stateMutability": "view",
      "type": "function"
    },
    {
      "inputs": [
        {
          "internalType": "uint256",
          "name": "tokenId",
          "type": "uint256"
        }
      ],
      "name": "ownerOf",
      "outputs": [
        {
          "internalType": "address",
          "name": "",
          "type": "address"
        }
      ],
      "stateMutability": "view",
      "type": "function"
    },
    {
      "inputs": [
        {
          "internalType": "uint256",
          "name": "",
          "type": "uint256"
        }
      ],
      "name": "priceUpdated",
      "outputs": [
        {
          "internalType": "bool",
          "name": "",
          "type": "bool"
        }
      ],
      "stateMutability": "view",
      "type": "function"
    },
    {
      "inputs": [
        {
          "internalType": "uint256",
          "name": "",
          "type": "uint256"
        }
      ],
      "name": "productId",
      "outputs": [
        {
          "internalType": "uint256",
          "name": "",
          "type": "uint256"
        }
      ],
      "stateMutability": "view",
      "type": "function"
    },
    {
      "inputs": [
        {
          "internalType": "uint256",
          "name": "",
          "type": "uint256"
        }
      ],
      "name": "products",
      "outputs": [
        {
          "internalType": "uint256",
          "name": "",
          "type": "uint256"
        }
      ],
      "stateMutability": "view",
      "type": "function"
    },
    {
      "inputs": [
        {
          "internalType": "uint256",
          "name": "ticketId",
          "type": "uint256"
        }
      ],
      "name": "requestDynamicPrice",
      "outputs": [],
      "stateMutability": "nonpayable",
      "type": "function"
    },
    {
      "inputs": [
        {
          "internalType": "address",
          "name": "from",
          "type": "address"
        },
        {
          "internalType": "address",
          "name": "to",
          "type": "address"
        },
        {
          "internalType": "uint256",
          "name": "tokenId",
          "type": "uint256"
        }
      ],
      "name": "safeTransferFrom",
      "outputs": [],
      "stateMutability": "nonpayable",
      "type": "function"
    },
    {
      "inputs": [
        {
          "internalType": "address",
          "name": "from",
          "type": "address"
        },
        {
          "internalType": "address",
          "name": "to",
          "type": "address"
        },
        {
          "internalType": "uint256",
          "name": "tokenId",
          "type": "uint256"
        },
        {
          "internalType": "bytes",
          "name": "data",
          "type": "bytes"
        }
      ],
      "name": "safeTransferFrom",
      "outputs": [],
      "stateMutability": "nonpayable",
      "type": "function"
    },
    {
      "inputs": [
        {
          "internalType": "address",
          "name": "operator",
          "type": "address"
        },
        {
          "internalType": "bool",
          "name": "approved",
          "type": "bool"
        }
      ],
      "name": "setApprovalForAll",
      "outputs": [],
      "stateMutability": "nonpayable",
      "type": "function"
    },
    {
      "inputs": [
        {
          "internalType": "bytes4",
          "name": "interfaceId",
          "type": "bytes4"
        }
      ],
      "name": "supportsInterface",
      "outputs": [
        {
          "internalType": "bool",
          "name": "",
          "type": "bool"
        }
      ],
      "stateMutability": "view",
      "type": "function"
    },
    {
      "inputs": [],
      "name": "symbol",
      "outputs": [
        {
          "internalType": "string",
          "name": "",
          "type": "string"
        }
      ],
      "stateMutability": "view",
      "type": "function"
    },
    {
      "inputs": [
        {
          "internalType": "uint256",
          "name": "",
          "type": "uint256"
        }
      ],
      "name": "tokenIdToTicket",
      "outputs": [
        {
          "internalType": "uint256",
          "name": "eventId",
          "type": "uint256"
        },
        {
          "internalType": "string",
          "name": "eventName",
          "type": "string"
        },
        {
          "internalType": "uint256",
          "name": "dateEvent",
          "type": "uint256"
        },
        {
          "internalType": "string",
          "name": "zone",
          "type": "string"
        },
        {
          "internalType": "string",
          "name": "seat",
          "type": "string"
        },
        {
          "internalType": "address",
          "name": "owner",
          "type": "address"
        },
        {
          "internalType": "address",
          "name": "creator",
          "type": "address"
        },
        {
          "internalType": "uint256",
          "name": "priceSeat",
          "type": "uint256"
        },
        {
          "internalType": "uint256",
          "name": "priceGas",
          "type": "uint256"
        }
      ],
      "stateMutability": "view",
      "type": "function"
    },
    {
      "inputs": [
        {
          "internalType": "uint256",
          "name": "tokenId",
          "type": "uint256"
        }
      ],
      "name": "tokenURI",
      "outputs": [
        {
          "internalType": "string",
          "name": "",
          "type": "string"
        }
      ],
      "stateMutability": "view",
      "type": "function"
    },
    {
      "inputs": [
        {
          "internalType": "address",
          "name": "from",
          "type": "address"
        },
        {
          "internalType": "address",
          "name": "to",
          "type": "address"
        },
        {
          "internalType": "uint256",
          "name": "tokenId",
          "type": "uint256"
        }
      ],
      "name": "transferFrom",
      "outputs": [],
      "stateMutability": "nonpayable",
      "type": "function"
    },
    {
      "inputs": [
        {
          "internalType": "address",
          "name": "",
          "type": "address"
        },
        {
          "internalType": "uint256",
          "name": "",
          "type": "uint256"
        }
      ],
      "name": "userLimit",
      "outputs": [
        {
          "internalType": "uint256",
          "name": "",
          "type": "uint256"
        }
      ],
      "stateMutability": "view",
      "type": "function"
    }
  ],
  "bytecode": "0x608060405234801561001057600080fd5b5060405161567c38038061567c8339818101604052810190610032919061016a565b6040518060400160405280600981526020017f5469636b65744e465400000000000000000000000000000000000000000000008152506040518060400160405280600481526020017f544e46540000000000000000000000000000000000000000000000000000000081525081600090816100ad91906103e7565b5080600190816100bd91906103e7565b50505080601160006101000a81548173ffffffffffffffffffffffffffffffffffffffff021916908373ffffffffffffffffffffffffffffffffffffffff160217905550506104b9565b600080fd5b600073ffffffffffffffffffffffffffffffffffffffff82169050919050565b60006101378261010c565b9050919050565b6101478161012c565b811461015257600080fd5b50565b6000815190506101648161013e565b92915050565b6000602082840312156101805761017f610107565b5b600061018e84828501610155565b91505092915050565b600081519050919050565b7f4e487b7100000000000000000000000000000000000000000000000000000000600052604160045260246000fd5b7f4e487b7100000000000000000000000000000000000000000000000000000000600052602260045260246000fd5b6000600282049050600182168061021857607f821691505b60208210810361022b5761022a6101d1565b5b50919050565b60008190508160005260206000209050919050565b60006020601f8301049050919050565b600082821b905092915050565b6000600883026102937fffffffffffffffffffffffffffffffffffffffffffffffffffffffffffffffff82610256565b61029d8683610256565b95508019841693508086168417925050509392505050565b6000819050919050565b6000819050919050565b60006102e46102df6102da846102b5565b6102bf565b6102b5565b9050919050565b6000819050919050565b6102fe836102c9565b61031261030a826102eb565b848454610263565b825550505050565b600090565b61032761031a565b6103328184846102f5565b505050565b5b818110156103565761034b60008261031f565b600181019050610338565b5050565b601f82111561039b5761036c81610231565b61037584610246565b81016020851015610384578190505b61039861039085610246565b830182610337565b50505b505050565b600082821c905092915050565b60006103be600019846008026103a0565b1980831691505092915050565b60006103d783836103ad565b9150826002028217905092915050565b6103f082610197565b67ffffffffffffffff811115610409576104086101a2565b5b6104138254610200565b61041e82828561035a565b600060209050601f831160018114610451576000841561043f578287015190505b61044985826103cb565b8655506104b1565b601f19841661045f86610231565b60005b8281101561048757848901518255600182019150602085019450602081019050610462565b868310156104a457848901516104a0601f8916826103ad565b8355505b6001600288020188555050505b505050505050565b6151b4806104c86000396000f3fe6080604052600436106101e35760003560e01c80637dc0d1d011610102578063b66d446311610095578063c87b56dd11610064578063c87b56dd14610782578063e985e9c5146107bf578063f3c5ad02146107fc578063fb3ae56f1461082c576101e3565b8063b66d4463146106b6578063b88d4fde146106df578063ba18336814610708578063ba6dc0d214610745576101e3565b80638b174b1b116100d15780638b174b1b146105fc57806395d89b4114610639578063a22cb46514610664578063b0857fc61461068d576101e3565b80637dc0d1d01461053a5780637dc379fa146105655780638642269e146105a25780638890fe98146105be576101e3565b8063327a48cc1161017a5780636352211e116101495780636352211e1461043e57806370a082311461047b5780637acc0b20146104b85780637c67ac0c146104f5576101e3565b8063327a48cc1461038457806342842e0e146103ad57806352639349146103d657806352cb26af14610413576101e3565b8063081812fc116101b6578063081812fc146102b8578063095ea7b3146102f55780632337e8531461031e57806323b872dd1461035b576101e3565b806301ffc9a7146101e8578063024121fe1461022557806306e8337f1461026257806306fdde031461028d575b600080fd5b3480156101f457600080fd5b5061020f600480360381019061020a919061388b565b610869565b60405161021c91906138d3565b60405180910390f35b34801561023157600080fd5b5061024c60048036038101906102479190613982565b6108ca565b60405161025991906139d1565b60405180910390f35b34801561026e57600080fd5b506102776108ef565b60405161028491906139d1565b60405180910390f35b34801561029957600080fd5b506102a26108fc565b6040516102af9190613a7c565b60405180910390f35b3480156102c457600080fd5b506102df60048036038101906102da9190613a9e565b61098e565b6040516102ec9190613ada565b60405180910390f35b34801561030157600080fd5b5061031c60048036038101906103179190613982565b6109aa565b005b34801561032a57600080fd5b5061034560048036038101906103409190613a9e565b6109c0565b60405161035291906138d3565b60405180910390f35b34801561036757600080fd5b50610382600480360381019061037d9190613af5565b6109e0565b005b34801561039057600080fd5b506103ab60048036038101906103a69190613a9e565b610ae2565b005b3480156103b957600080fd5b506103d460048036038101906103cf9190613af5565b610d6f565b005b3480156103e257600080fd5b506103fd60048036038101906103f89190613a9e565b610d8f565b60405161040a91906139d1565b60405180910390f35b34801561041f57600080fd5b50610428610da7565b6040516104359190613c06565b60405180910390f35b34801561044a57600080fd5b5061046560048036038101906104609190613a9e565b610dff565b6040516104729190613ada565b60405180910390f35b34801561048757600080fd5b506104a2600480360381019061049d9190613c28565b610e11565b6040516104af91906139d1565b60405180910390f35b3480156104c457600080fd5b506104df60048036038101906104da9190613a9e565b610ecb565b6040516104ec91906139d1565b60405180910390f35b34801561050157600080fd5b5061051c60048036038101906105179190613a9e565b610eef565b60405161053199989796959493929190613c55565b60405180910390f35b34801561054657600080fd5b5061054f611115565b60405161055c9190613d56565b60405180910390f35b34801561057157600080fd5b5061058c60048036038101906105879190613a9e565b61113b565b6040516105999190613e9d565b60405180910390f35b6105bc60048036038101906105b79190613a9e565b61146a565b005b3480156105ca57600080fd5b506105e560048036038101906105e09190613a9e565b6117c8565b6040516105f3929190613ebf565b60405180910390f35b34801561060857600080fd5b50610623600480360381019061061e9190613a9e565b61180c565b60405161063091906139d1565b60405180910390f35b34801561064557600080fd5b5061064e611824565b60405161065b9190613a7c565b60405180910390f35b34801561067057600080fd5b5061068b60048036038101906106869190613f14565b6118b6565b005b34801561069957600080fd5b506106b460048036038101906106af9190613f54565b6118cc565b005b3480156106c257600080fd5b506106dd60048036038101906106d89190613a9e565b6119a4565b005b3480156106eb57600080fd5b50610706600480360381019061070191906140c9565b611b07565b005b34801561071457600080fd5b5061072f600480360381019061072a9190613a9e565b611b2c565b60405161073c91906138d3565b60405180910390f35b34801561075157600080fd5b5061076c60048036038101906107679190613a9e565b611b4c565b6040516107799190613ada565b60405180910390f35b34801561078e57600080fd5b506107a960048036038101906107a49190613a9e565b611b7f565b6040516107b69190613a7c565b60405180910390f35b3480156107cb57600080fd5b506107e660048036038101906107e1919061414c565b611c92565b6040516107f391906138d3565b60405180910390f35b610816600480360381019061081191906142f5565b611d26565b60405161082391906139d1565b60405180910390f35b34801561083857600080fd5b50610853600480360381019061084e9190613a9e565b611fef565b60405161086091906138d3565b60405180910390f35b6000634906490660e01b7bffffffffffffffffffffffffffffffffffffffffffffffffffffffff1916827bffffffffffffffffffffffffffffffffffffffffffffffffffffffff191614806108c357506108c282612348565b5b9050919050565b6009602052816000526040600020602052806000526040600020600091509150505481565b6000600880549050905090565b60606000805461090b90614473565b80601f016020809104026020016040519081016040528092919081815260200182805461093790614473565b80156109845780601f1061095957610100808354040283529160200191610984565b820191906000526020600020905b81548152906001019060200180831161096757829003601f168201915b5050505050905090565b60006109998261242a565b506109a3826124b2565b9050919050565b6109bc82826109b76124ef565b6124f7565b5050565b600e6020528060005260406000206000915054906101000a900460ff1681565b600073ffffffffffffffffffffffffffffffffffffffff168273ffffffffffffffffffffffffffffffffffffffff1603610a525760006040517f64a0ae92000000000000000000000000000000000000000000000000000000008152600401610a499190613ada565b60405180910390fd5b6000610a668383610a616124ef565b612509565b90508373ffffffffffffffffffffffffffffffffffffffff168173ffffffffffffffffffffffffffffffffffffffff1614610adc578382826040517f64283d7b000000000000000000000000000000000000000000000000000000008152600401610ad3939291906144a4565b60405180910390fd5b50505050565b80610aec81610dff565b73ffffffffffffffffffffffffffffffffffffffff163373ffffffffffffffffffffffffffffffffffffffff1614610b59576040517f08c379a0000000000000000000000000000000000000000000000000000000008152600401610b509061454d565b60405180910390fd5b600e600083815260200190815260200160002060009054906101000a900460ff1615610bba576040517f08c379a0000000000000000000000000000000000000000000000000000000008152600401610bb1906145df565b60405180910390fd5b610bc5333084612723565b33600f600084815260200190815260200160002060006101000a81548173ffffffffffffffffffffffffffffffffffffffff021916908373ffffffffffffffffffffffffffffffffffffffff16021790555060405180604001604052808381526020013373ffffffffffffffffffffffffffffffffffffffff16815250600b60008481526020019081526020016000206000820151816000015560208201518160010160006101000a81548173ffffffffffffffffffffffffffffffffffffffff021916908373ffffffffffffffffffffffffffffffffffffffff1602179055509050506001600e600084815260200190815260200160002060006101000a81548160ff02191690831515021790555060128290806001815401808255809150506001900390600052602060002001600090919091909150556001601280549050610d10919061462e565b60106000848152602001908152602001600020819055503373ffffffffffffffffffffffffffffffffffffffff16827f61394ce83505fd053362beef6b6476dc5cdd4e4dd515dd026ee6ed7f4d473cd060405160405180910390a35050565b610d8a83838360405180602001604052806000815250611b07565b505050565b600c6020528060005260406000206000915090505481565b60606012805480602002602001604051908101604052809291908181526020018280548015610df557602002820191906000526020600020905b815481526020019060010190808311610de1575b5050505050905090565b6000610e0a8261242a565b9050919050565b60008073ffffffffffffffffffffffffffffffffffffffff168273ffffffffffffffffffffffffffffffffffffffff1603610e845760006040517f89c62b64000000000000000000000000000000000000000000000000000000008152600401610e7b9190613ada565b60405180910390fd5b600360008373ffffffffffffffffffffffffffffffffffffffff1673ffffffffffffffffffffffffffffffffffffffff168152602001908152602001600020549050919050565b60128181548110610edb57600080fd5b906000526020600020016000915090505481565b6007602052806000526040600020600091509050806000015490806001018054610f1890614473565b80601f0160208091040260200160405190810160405280929190818152602001828054610f4490614473565b8015610f915780601f10610f6657610100808354040283529160200191610f91565b820191906000526020600020905b815481529060010190602001808311610f7457829003601f168201915b505050505090806002015490806003018054610fac90614473565b80601f0160208091040260200160405190810160405280929190818152602001828054610fd890614473565b80156110255780601f10610ffa57610100808354040283529160200191611025565b820191906000526020600020905b81548152906001019060200180831161100857829003601f168201915b50505050509080600401805461103a90614473565b80601f016020809104026020016040519081016040528092919081815260200182805461106690614473565b80156110b35780601f10611088576101008083540402835291602001916110b3565b820191906000526020600020905b81548152906001019060200180831161109657829003601f168201915b5050505050908060050160009054906101000a900473ffffffffffffffffffffffffffffffffffffffff16908060060160009054906101000a900473ffffffffffffffffffffffffffffffffffffffff16908060070154908060080154905089565b601160009054906101000a900473ffffffffffffffffffffffffffffffffffffffff1681565b6111436137a7565b600073ffffffffffffffffffffffffffffffffffffffff1661116483612890565b73ffffffffffffffffffffffffffffffffffffffff16036111ba576040517f08c379a00000000000000000000000000000000000000000000000000000000081526004016111b1906146ae565b60405180910390fd5b6007600083815260200190815260200160002060405180610120016040529081600082015481526020016001820180546111f390614473565b80601f016020809104026020016040519081016040528092919081815260200182805461121f90614473565b801561126c5780601f106112415761010080835404028352916020019161126c565b820191906000526020600020905b81548152906001019060200180831161124f57829003601f168201915b505050505081526020016002820154815260200160038201805461128f90614473565b80601f01602080910402602001604051908101604052809291908181526020018280546112bb90614473565b80156113085780601f106112dd57610100808354040283529160200191611308565b820191906000526020600020905b8154815290600101906020018083116112eb57829003601f168201915b5050505050815260200160048201805461132190614473565b80601f016020809104026020016040519081016040528092919081815260200182805461134d90614473565b801561139a5780601f1061136f5761010080835404028352916020019161139a565b820191906000526020600020905b81548152906001019060200180831161137d57829003601f168201915b505050505081526020016005820160009054906101000a900473ffffffffffffffffffffffffffffffffffffffff1673ffffffffffffffffffffffffffffffffffffffff1673ffffffffffffffffffffffffffffffffffffffff1681526020016006820160009054906101000a900473ffffffffffffffffffffffffffffffffffffffff1673ffffffffffffffffffffffffffffffffffffffff1673ffffffffffffffffffffffffffffffffffffffff168152602001600782015481526020016008820154815250509050919050565b8060026001810361151b57600f600083815260200190815260200160002060009054906101000a900473ffffffffffffffffffffffffffffffffffffffff1673ffffffffffffffffffffffffffffffffffffffff163373ffffffffffffffffffffffffffffffffffffffff1614611516576040517f08c379a000000000000000000000000000000000000000000000000000000000815260040161150d90614766565b60405180910390fd5b611585565b6002810361158457600e600083815260200190815260200160002060009054906101000a900460ff16611583576040517f08c379a000000000000000000000000000000000000000000000000000000000815260040161157a9061481e565b60405180910390fd5b5b5b600d600084815260200190815260200160002060009054906101000a900460ff166115e5576040517f08c379a00000000000000000000000000000000000000000000000000000000081526004016115dc9061488a565b60405180910390fd5b6000600c600085815260200190815260200160002054905080341015611640576040517f08c379a0000000000000000000000000000000000000000000000000000000008152600401611637906148f6565b60405180910390fd5b6007600085815260200190815260200160002060050160009054906101000a900473ffffffffffffffffffffffffffffffffffffffff1673ffffffffffffffffffffffffffffffffffffffff166108fc349081150290604051600060405180830381858888f193505050501580156116bc573d6000803e3d6000fd5b506116c8303386612723565b336007600086815260200190815260200160002060050160006101000a81548173ffffffffffffffffffffffffffffffffffffffff021916908373ffffffffffffffffffffffffffffffffffffffff160217905550600f600085815260200190815260200160002060006101000a81549073ffffffffffffffffffffffffffffffffffffffff0219169055600c600085815260200190815260200160002060009055611773846128cd565b3373ffffffffffffffffffffffffffffffffffffffff16847fa1d210a6d635a4ba4507ac34e3460465f1df316f3852bb899f3e4d66e0ce648c836040516117ba91906139d1565b60405180910390a350505050565b600b6020528060005260406000206000915090508060000154908060010160009054906101000a900473ffffffffffffffffffffffffffffffffffffffff16905082565b60106020528060005260406000206000915090505481565b60606001805461183390614473565b80601f016020809104026020016040519081016040528092919081815260200182805461185f90614473565b80156118ac5780601f10611881576101008083540402835291602001916118ac565b820191906000526020600020905b81548152906001019060200180831161188f57829003601f168201915b5050505050905090565b6118c86118c16124ef565b83836129c5565b5050565b601160009054906101000a900473ffffffffffffffffffffffffffffffffffffffff1673ffffffffffffffffffffffffffffffffffffffff163373ffffffffffffffffffffffffffffffffffffffff161461195c576040517f08c379a000000000000000000000000000000000000000000000000000000000815260040161195390614962565b60405180910390fd5b80600c6000848152602001908152602001600020819055506001600d600084815260200190815260200160002060006101000a81548160ff0219169083151502179055505050565b3373ffffffffffffffffffffffffffffffffffffffff16600b600083815260200190815260200160002060010160009054906101000a900473ffffffffffffffffffffffffffffffffffffffff1673ffffffffffffffffffffffffffffffffffffffff1603611a48576040517f08c379a0000000000000000000000000000000000000000000000000000000008152600401611a3f906149ce565b60405180910390fd5b601160009054906101000a900473ffffffffffffffffffffffffffffffffffffffff1673ffffffffffffffffffffffffffffffffffffffff166390dd014482306040518363ffffffff1660e01b8152600401611aa5929190613ebf565b600060405180830381600087803b158015611abf57600080fd5b505af1158015611ad3573d6000803e3d6000fd5b50505050807fd1ecbb3aa98a723c72008c67e4894d945d8dfb8702b85da0340608423b2ad59060405160405180910390a250565b611b128484846109e0565b611b26611b1d6124ef565b85858585612b34565b50505050565b600d6020528060005260406000206000915054906101000a900460ff1681565b600f6020528060005260406000206000915054906101000a900473ffffffffffffffffffffffffffffffffffffffff1681565b6060611b8a8261242a565b506000600660008481526020019081526020016000208054611bab90614473565b80601f0160208091040260200160405190810160405280929190818152602001828054611bd790614473565b8015611c245780601f10611bf957610100808354040283529160200191611c24565b820191906000526020600020905b815481529060010190602001808311611c0757829003601f168201915b505050505090506000611c35612ce5565b90506000815103611c4a578192505050611c8d565b600082511115611c7f578082604051602001611c67929190614a2a565b60405160208183030381529060405292505050611c8d565b611c8884612cfc565b925050505b919050565b6000600560008473ffffffffffffffffffffffffffffffffffffffff1673ffffffffffffffffffffffffffffffffffffffff16815260200190815260200160002060008373ffffffffffffffffffffffffffffffffffffffff1673ffffffffffffffffffffffffffffffffffffffff16815260200190815260200160002060009054906101000a900460ff16905092915050565b6000805a905082611f7157348614611d73576040517f08c379a0000000000000000000000000000000000000000000000000000000008152600401611d6a90614a9a565b60405180910390fd5b846001600960003373ffffffffffffffffffffffffffffffffffffffff1673ffffffffffffffffffffffffffffffffffffffff16815260200190815260200160002060008e815260200190815260200160002054611dd19190614aba565b1115611e12576040517f08c379a0000000000000000000000000000000000000000000000000000000008152600401611e0990614b3a565b60405180910390fd5b6001600960003373ffffffffffffffffffffffffffffffffffffffff1673ffffffffffffffffffffffffffffffffffffffff16815260200190815260200160002060008d815260200190815260200160002054611e6f9190614aba565b600960003373ffffffffffffffffffffffffffffffffffffffff1673ffffffffffffffffffffffffffffffffffffffff16815260200190815260200160002060008d81526020019081526020016000208190555060008473ffffffffffffffffffffffffffffffffffffffff1634604051611ee990614b8b565b60006040518083038185875af1925050503d8060008114611f26576040519150601f19603f3d011682016040523d82523d6000602084013e611f2b565b606091505b5050905080611f6f576040517f08c379a0000000000000000000000000000000000000000000000000000000008152600401611f6690614bec565b60405180910390fd5b505b6000611f9f8d8d8d8d600081518110611f8d57611f8c614c0c565b5b60200260200101518d8d8d8933612d65565b90508b817fa8cd2e7f294b0bbc9438473efc1873e985521c0b332b7cf5b076f72c345d9e308b8b604051611fd4929190614c3b565b60405180910390a380925050509a9950505050505050505050565b60008073ffffffffffffffffffffffffffffffffffffffff1661201183612890565b73ffffffffffffffffffffffffffffffffffffffff16036120355760009050612343565b600060076000848152602001908152602001600020604051806101200160405290816000820154815260200160018201805461207090614473565b80601f016020809104026020016040519081016040528092919081815260200182805461209c90614473565b80156120e95780601f106120be576101008083540402835291602001916120e9565b820191906000526020600020905b8154815290600101906020018083116120cc57829003601f168201915b505050505081526020016002820154815260200160038201805461210c90614473565b80601f016020809104026020016040519081016040528092919081815260200182805461213890614473565b80156121855780601f1061215a57610100808354040283529160200191612185565b820191906000526020600020905b81548152906001019060200180831161216857829003601f168201915b5050505050815260200160048201805461219e90614473565b80601f01602080910402602001604051908101604052809291908181526020018280546121ca90614473565b80156122175780601f106121ec57610100808354040283529160200191612217565b820191906000526020600020905b8154815290600101906020018083116121fa57829003601f168201915b505050505081526020016005820160009054906101000a900473ffffffffffffffffffffffffffffffffffffffff1673ffffffffffffffffffffffffffffffffffffffff1673ffffffffffffffffffffffffffffffffffffffff1681526020016006820160009054906101000a900473ffffffffffffffffffffffffffffffffffffffff1673ffffffffffffffffffffffffffffffffffffffff1673ffffffffffffffffffffffffffffffffffffffff168152602001600782015481526020016008820154815250509050600081606001518260800151836000015160405160200161230593929190614c93565b604051602081830303815290604052805190602001209050600a600082815260200190815260200160002060009054906101000a900460ff16925050505b919050565b60007f80ac58cd000000000000000000000000000000000000000000000000000000007bffffffffffffffffffffffffffffffffffffffffffffffffffffffff1916827bffffffffffffffffffffffffffffffffffffffffffffffffffffffff1916148061241357507f5b5e139f000000000000000000000000000000000000000000000000000000007bffffffffffffffffffffffffffffffffffffffffffffffffffffffff1916827bffffffffffffffffffffffffffffffffffffffffffffffffffffffff1916145b80612423575061242282613097565b5b9050919050565b60008061243683612890565b9050600073ffffffffffffffffffffffffffffffffffffffff168173ffffffffffffffffffffffffffffffffffffffff16036124a957826040517f7e2732890000000000000000000000000000000000000000000000000000000081526004016124a091906139d1565b60405180910390fd5b80915050919050565b60006004600083815260200190815260200160002060009054906101000a900473ffffffffffffffffffffffffffffffffffffffff169050919050565b600033905090565b6125048383836001613101565b505050565b60008061251584612890565b9050600073ffffffffffffffffffffffffffffffffffffffff168373ffffffffffffffffffffffffffffffffffffffff1614612557576125568184866132c6565b5b600073ffffffffffffffffffffffffffffffffffffffff168173ffffffffffffffffffffffffffffffffffffffff16146125e857612599600085600080613101565b6001600360008373ffffffffffffffffffffffffffffffffffffffff1673ffffffffffffffffffffffffffffffffffffffff168152602001908152602001600020600082825403925050819055505b600073ffffffffffffffffffffffffffffffffffffffff168573ffffffffffffffffffffffffffffffffffffffff161461266b576001600360008773ffffffffffffffffffffffffffffffffffffffff1673ffffffffffffffffffffffffffffffffffffffff168152602001908152602001600020600082825401925050819055505b846002600086815260200190815260200160002060006101000a81548173ffffffffffffffffffffffffffffffffffffffff021916908373ffffffffffffffffffffffffffffffffffffffff160217905550838573ffffffffffffffffffffffffffffffffffffffff168273ffffffffffffffffffffffffffffffffffffffff167fddf252ad1be2c89b69c2b068fc378daa952ba7f163c4a11628f55a4df523b3ef60405160405180910390a4809150509392505050565b600073ffffffffffffffffffffffffffffffffffffffff168273ffffffffffffffffffffffffffffffffffffffff16036127955760006040517f64a0ae9200000000000000000000000000000000000000000000000000000000815260040161278c9190613ada565b60405180910390fd5b60006127a383836000612509565b9050600073ffffffffffffffffffffffffffffffffffffffff168173ffffffffffffffffffffffffffffffffffffffff160361281657816040517f7e27328900000000000000000000000000000000000000000000000000000000815260040161280d91906139d1565b60405180910390fd5b8373ffffffffffffffffffffffffffffffffffffffff168173ffffffffffffffffffffffffffffffffffffffff161461288a578382826040517f64283d7b000000000000000000000000000000000000000000000000000000008152600401612881939291906144a4565b60405180910390fd5b50505050565b60006002600083815260200190815260200160002060009054906101000a900473ffffffffffffffffffffffffffffffffffffffff169050919050565b600b60008281526020019081526020016000206000808201600090556001820160006101000a81549073ffffffffffffffffffffffffffffffffffffffff02191690555050600e600082815260200190815260200160002060006101000a81549060ff021916905560126001601280549050612949919061462e565b8154811061295a57612959614c0c565b5b9060005260206000200154601260106000848152602001908152602001600020548154811061298c5761298b614c0c565b5b906000526020600020018190555060128054806129ac576129ab614cc8565b5b6001900381819060005260206000200160009055905550565b600073ffffffffffffffffffffffffffffffffffffffff168273ffffffffffffffffffffffffffffffffffffffff1603612a3657816040517f5b08ba18000000000000000000000000000000000000000000000000000000008152600401612a2d9190613ada565b60405180910390fd5b80600560008573ffffffffffffffffffffffffffffffffffffffff1673ffffffffffffffffffffffffffffffffffffffff16815260200190815260200160002060008473ffffffffffffffffffffffffffffffffffffffff1673ffffffffffffffffffffffffffffffffffffffff16815260200190815260200160002060006101000a81548160ff0219169083151502179055508173ffffffffffffffffffffffffffffffffffffffff168373ffffffffffffffffffffffffffffffffffffffff167f17307eab39ab6107e8899845ad3d59bd9653f200f220920489ca2b5937696c3183604051612b2791906138d3565b60405180910390a3505050565b60008373ffffffffffffffffffffffffffffffffffffffff163b1115612cde578273ffffffffffffffffffffffffffffffffffffffff1663150b7a02868685856040518563ffffffff1660e01b8152600401612b939493929190614d4c565b6020604051808303816000875af1925050508015612bcf57506040513d601f19601f82011682018060405250810190612bcc9190614dad565b60015b612c53573d8060008114612bff576040519150601f19603f3d011682016040523d82523d6000602084013e612c04565b606091505b506000815103612c4b57836040517f64a0ae92000000000000000000000000000000000000000000000000000000008152600401612c429190613ada565b60405180910390fd5b805181602001fd5b63150b7a0260e01b7bffffffffffffffffffffffffffffffffffffffffffffffffffffffff1916817bffffffffffffffffffffffffffffffffffffffffffffffffffffffff191614612cdc57836040517f64a0ae92000000000000000000000000000000000000000000000000000000008152600401612cd39190613ada565b60405180910390fd5b505b5050505050565b606060405180602001604052806000815250905090565b6060612d078261242a565b506000612d12612ce5565b90506000815111612d325760405180602001604052806000815250612d5d565b80612d3c8461338a565b604051602001612d4d929190614a2a565b6040516020818303038152906040525b915050919050565b60008073ffffffffffffffffffffffffffffffffffffffff16612d878b612890565b73ffffffffffffffffffffffffffffffffffffffff1614612ddd576040517f08c379a0000000000000000000000000000000000000000000000000000000008152600401612dd490614e26565b60405180910390fd5b600086868b604051602001612df493929190614c93565b604051602081830303815290604052805190602001209050600a600082815260200190815260200160002060009054906101000a900460ff1615612e6d576040517f08c379a0000000000000000000000000000000000000000000000000000000008152600401612e6490614e92565b60405180910390fd5b60006040518061012001604052808c81526020018b81526020018a81526020018981526020018881526020018573ffffffffffffffffffffffffffffffffffffffff1681526020018573ffffffffffffffffffffffffffffffffffffffff16815260200187815260200186815250905060088c9080600181540180825580915050600190039060005260206000200160009091909190915055612f10848d613458565b80600760008e8152602001908152602001600020600082015181600001556020820151816001019081612f439190615054565b50604082015181600201556060820151816003019081612f639190615054565b506080820151816004019081612f799190615054565b5060a08201518160050160006101000a81548173ffffffffffffffffffffffffffffffffffffffff021916908373ffffffffffffffffffffffffffffffffffffffff16021790555060c08201518160060160006101000a81548173ffffffffffffffffffffffffffffffffffffffff021916908373ffffffffffffffffffffffffffffffffffffffff16021790555060e0820151816007015561010082015181600801559050506001600a600084815260200190815260200160002060006101000a81548160ff0219169083151502179055508a8c7f085ec0eff4bf526b0dd054adffcd8bd8da42126a1133ce302042973f32029fb08660405161307d9190613ada565b60405180910390a38b925050509998505050505050505050565b60007f01ffc9a7000000000000000000000000000000000000000000000000000000007bffffffffffffffffffffffffffffffffffffffffffffffffffffffff1916827bffffffffffffffffffffffffffffffffffffffffffffffffffffffff1916149050919050565b808061313a5750600073ffffffffffffffffffffffffffffffffffffffff168273ffffffffffffffffffffffffffffffffffffffff1614155b1561326e57600061314a8461242a565b9050600073ffffffffffffffffffffffffffffffffffffffff168373ffffffffffffffffffffffffffffffffffffffff16141580156131b557508273ffffffffffffffffffffffffffffffffffffffff168173ffffffffffffffffffffffffffffffffffffffff1614155b80156131c857506131c68184611c92565b155b1561320a57826040517fa9fbf51f0000000000000000000000000000000000000000000000000000000081526004016132019190613ada565b60405180910390fd5b811561326c57838573ffffffffffffffffffffffffffffffffffffffff168273ffffffffffffffffffffffffffffffffffffffff167f8c5be1e5ebec7d5bd14f71427d1e84f3dd0314c0f7b2291e5b200ac8c7c3b92560405160405180910390a45b505b836004600085815260200190815260200160002060006101000a81548173ffffffffffffffffffffffffffffffffffffffff021916908373ffffffffffffffffffffffffffffffffffffffff16021790555050505050565b6132d1838383613476565b61338557600073ffffffffffffffffffffffffffffffffffffffff168373ffffffffffffffffffffffffffffffffffffffff160361334657806040517f7e27328900000000000000000000000000000000000000000000000000000000815260040161333d91906139d1565b60405180910390fd5b81816040517f177e802f00000000000000000000000000000000000000000000000000000000815260040161337c929190615126565b60405180910390fd5b505050565b60606000600161339984613537565b01905060008167ffffffffffffffff8111156133b8576133b7613f9e565b5b6040519080825280601f01601f1916602001820160405280156133ea5781602001600182028036833780820191505090505b509050600082602001820190505b60011561344d578080600190039150507f3031323334353637383961626364656600000000000000000000000000000000600a86061a8153600a85816134415761344061514f565b5b049450600085036133f8575b819350505050919050565b61347282826040518060200160405280600081525061368a565b5050565b60008073ffffffffffffffffffffffffffffffffffffffff168373ffffffffffffffffffffffffffffffffffffffff161415801561352e57508273ffffffffffffffffffffffffffffffffffffffff168473ffffffffffffffffffffffffffffffffffffffff1614806134ef57506134ee8484611c92565b5b8061352d57508273ffffffffffffffffffffffffffffffffffffffff16613515836124b2565b73ffffffffffffffffffffffffffffffffffffffff16145b5b90509392505050565b600080600090507a184f03e93ff9f4daa797ed6e38ed64bf6a1f0100000000000000008310613595577a184f03e93ff9f4daa797ed6e38ed64bf6a1f010000000000000000838161358b5761358a61514f565b5b0492506040810190505b6d04ee2d6d415b85acef810000000083106135d2576d04ee2d6d415b85acef810000000083816135c8576135c761514f565b5b0492506020810190505b662386f26fc10000831061360157662386f26fc1000083816135f7576135f661514f565b5b0492506010810190505b6305f5e100831061362a576305f5e10083816136205761361f61514f565b5b0492506008810190505b612710831061364f5761271083816136455761364461514f565b5b0492506004810190505b6064831061367257606483816136685761366761514f565b5b0492506002810190505b600a8310613681576001810190505b80915050919050565b61369483836136ae565b6136a961369f6124ef565b6000858585612b34565b505050565b600073ffffffffffffffffffffffffffffffffffffffff168273ffffffffffffffffffffffffffffffffffffffff16036137205760006040517f64a0ae920000000000000000000000000000000000000000000000000000000081526004016137179190613ada565b60405180910390fd5b600061372e83836000612509565b9050600073ffffffffffffffffffffffffffffffffffffffff168173ffffffffffffffffffffffffffffffffffffffff16146137a25760006040517f73c6ac6e0000000000000000000000000000000000000000000000000000000081526004016137999190613ada565b60405180910390fd5b505050565b6040518061012001604052806000815260200160608152602001600081526020016060815260200160608152602001600073ffffffffffffffffffffffffffffffffffffffff168152602001600073ffffffffffffffffffffffffffffffffffffffff16815260200160008152602001600081525090565b6000604051905090565b600080fd5b600080fd5b60007fffffffff0000000000000000000000000000000000000000000000000000000082169050919050565b61386881613833565b811461387357600080fd5b50565b6000813590506138858161385f565b92915050565b6000602082840312156138a1576138a0613829565b5b60006138af84828501613876565b91505092915050565b60008115159050919050565b6138cd816138b8565b82525050565b60006020820190506138e860008301846138c4565b92915050565b600073ffffffffffffffffffffffffffffffffffffffff82169050919050565b6000613919826138ee565b9050919050565b6139298161390e565b811461393457600080fd5b50565b60008135905061394681613920565b92915050565b6000819050919050565b61395f8161394c565b811461396a57600080fd5b50565b60008135905061397c81613956565b92915050565b6000806040838503121561399957613998613829565b5b60006139a785828601613937565b92505060206139b88582860161396d565b9150509250929050565b6139cb8161394c565b82525050565b60006020820190506139e660008301846139c2565b92915050565b600081519050919050565b600082825260208201905092915050565b60005b83811015613a26578082015181840152602081019050613a0b565b60008484015250505050565b6000601f19601f8301169050919050565b6000613a4e826139ec565b613a5881856139f7565b9350613a68818560208601613a08565b613a7181613a32565b840191505092915050565b60006020820190508181036000830152613a968184613a43565b905092915050565b600060208284031215613ab457613ab3613829565b5b6000613ac28482850161396d565b91505092915050565b613ad48161390e565b82525050565b6000602082019050613aef6000830184613acb565b92915050565b600080600060608486031215613b0e57613b0d613829565b5b6000613b1c86828701613937565b9350506020613b2d86828701613937565b9250506040613b3e8682870161396d565b9150509250925092565b600081519050919050565b600082825260208201905092915050565b6000819050602082019050919050565b613b7d8161394c565b82525050565b6000613b8f8383613b74565b60208301905092915050565b6000602082019050919050565b6000613bb382613b48565b613bbd8185613b53565b9350613bc883613b64565b8060005b83811015613bf9578151613be08882613b83565b9750613beb83613b9b565b925050600181019050613bcc565b5085935050505092915050565b60006020820190508181036000830152613c208184613ba8565b905092915050565b600060208284031215613c3e57613c3d613829565b5b6000613c4c84828501613937565b91505092915050565b600061012082019050613c6b600083018c6139c2565b8181036020830152613c7d818b613a43565b9050613c8c604083018a6139c2565b8181036060830152613c9e8189613a43565b90508181036080830152613cb28188613a43565b9050613cc160a0830187613acb565b613cce60c0830186613acb565b613cdb60e08301856139c2565b613ce96101008301846139c2565b9a9950505050505050505050565b6000819050919050565b6000613d1c613d17613d12846138ee565b613cf7565b6138ee565b9050919050565b6000613d2e82613d01565b9050919050565b6000613d4082613d23565b9050919050565b613d5081613d35565b82525050565b6000602082019050613d6b6000830184613d47565b92915050565b600082825260208201905092915050565b6000613d8d826139ec565b613d978185613d71565b9350613da7818560208601613a08565b613db081613a32565b840191505092915050565b613dc48161390e565b82525050565b600061012083016000830151613de36000860182613b74565b5060208301518482036020860152613dfb8282613d82565b9150506040830151613e106040860182613b74565b5060608301518482036060860152613e288282613d82565b91505060808301518482036080860152613e428282613d82565b91505060a0830151613e5760a0860182613dbb565b5060c0830151613e6a60c0860182613dbb565b5060e0830151613e7d60e0860182613b74565b50610100830151613e92610100860182613b74565b508091505092915050565b60006020820190508181036000830152613eb78184613dca565b905092915050565b6000604082019050613ed460008301856139c2565b613ee16020830184613acb565b9392505050565b613ef1816138b8565b8114613efc57600080fd5b50565b600081359050613f0e81613ee8565b92915050565b60008060408385031215613f2b57613f2a613829565b5b6000613f3985828601613937565b9250506020613f4a85828601613eff565b9150509250929050565b60008060408385031215613f6b57613f6a613829565b5b6000613f798582860161396d565b9250506020613f8a8582860161396d565b9150509250929050565b600080fd5b600080fd5b7f4e487b7100000000000000000000000000000000000000000000000000000000600052604160045260246000fd5b613fd682613a32565b810181811067ffffffffffffffff82111715613ff557613ff4613f9e565b5b80604052505050565b600061400861381f565b90506140148282613fcd565b919050565b600067ffffffffffffffff82111561403457614033613f9e565b5b61403d82613a32565b9050602081019050919050565b82818337600083830152505050565b600061406c61406784614019565b613ffe565b90508281526020810184848401111561408857614087613f99565b5b61409384828561404a565b509392505050565b600082601f8301126140b0576140af613f94565b5b81356140c0848260208601614059565b91505092915050565b600080600080608085870312156140e3576140e2613829565b5b60006140f187828801613937565b945050602061410287828801613937565b93505060406141138782880161396d565b925050606085013567ffffffffffffffff8111156141345761413361382e565b5b6141408782880161409b565b91505092959194509250565b6000806040838503121561416357614162613829565b5b600061417185828601613937565b925050602061418285828601613937565b9150509250929050565b600067ffffffffffffffff8211156141a7576141a6613f9e565b5b6141b082613a32565b9050602081019050919050565b60006141d06141cb8461418c565b613ffe565b9050828152602081018484840111156141ec576141eb613f99565b5b6141f784828561404a565b509392505050565b600082601f83011261421457614213613f94565b5b81356142248482602086016141bd565b91505092915050565b600067ffffffffffffffff82111561424857614247613f9e565b5b602082029050602081019050919050565b600080fd5b600061427161426c8461422d565b613ffe565b9050808382526020820190506020840283018581111561429457614293614259565b5b835b818110156142bd57806142a9888261396d565b845260208401935050602081019050614296565b5050509392505050565b600082601f8301126142dc576142db613f94565b5b81356142ec84826020860161425e565b91505092915050565b6000806000806000806000806000806101408b8d03121561431957614318613829565b5b60006143278d828e0161396d565b9a505060206143388d828e0161396d565b99505060408b013567ffffffffffffffff8111156143595761435861382e565b5b6143658d828e016141ff565b98505060608b013567ffffffffffffffff8111156143865761438561382e565b5b6143928d828e016142c7565b97505060808b013567ffffffffffffffff8111156143b3576143b261382e565b5b6143bf8d828e016141ff565b96505060a08b013567ffffffffffffffff8111156143e0576143df61382e565b5b6143ec8d828e016141ff565b95505060c06143fd8d828e0161396d565b94505060e061440e8d828e0161396d565b9350506101006144208d828e01613937565b9250506101206144328d828e01613eff565b9150509295989b9194979a5092959850565b7f4e487b7100000000000000000000000000000000000000000000000000000000600052602260045260246000fd5b6000600282049050600182168061448b57607f821691505b60208210810361449e5761449d614444565b5b50919050565b60006060820190506144b96000830186613acb565b6144c660208301856139c2565b6144d36040830184613acb565b949350505050565b7f4f6e6c7920746865206f776e6572206f6620746865205469636b65742063616e60008201527f2063616c6c20746869732066756e6374696f6e2e000000000000000000000000602082015250565b60006145376034836139f7565b9150614542826144db565b604082019050919050565b600060208201905081810360008301526145668161452a565b9050919050565b7f546865207469636b65742063616e206f6e6c79206265206c6973746564206f6e60008201527f6365000000000000000000000000000000000000000000000000000000000000602082015250565b60006145c96022836139f7565b91506145d48261456d565b604082019050919050565b600060208201905081810360008301526145f8816145bc565b9050919050565b7f4e487b7100000000000000000000000000000000000000000000000000000000600052601160045260246000fd5b60006146398261394c565b91506146448361394c565b925082820390508181111561465c5761465b6145ff565b5b92915050565b7f5469636b657420646f6573206e6f742065786973740000000000000000000000600082015250565b60006146986015836139f7565b91506146a382614662565b602082019050919050565b600060208201905081810360008301526146c78161468b565b9050919050565b7f4f6e6c79207468652061646472657373207468617420686173206c697374656460008201527f20746865205469636b65742063616e20686f6c64206f722063616e63656c207460208201527f6865206c697374696e672e000000000000000000000000000000000000000000604082015250565b6000614750604b836139f7565b915061475b826146ce565b606082019050919050565b6000602082019050818103600083015261477f81614743565b9050919050565b7f546865207469636b6574206e6565647320746f206265206c697374656420696e60008201527f206f7264657220746f20626520626f756768742c20686f6c64206f722063616e60208201527f63656c2e00000000000000000000000000000000000000000000000000000000604082015250565b60006148086044836139f7565b915061481382614786565b606082019050919050565b60006020820190508181036000830152614837816147fb565b9050919050565b7f44796e616d6963207072696365206e6f74207570646174656420796574000000600082015250565b6000614874601d836139f7565b915061487f8261483e565b602082019050919050565b600060208201905081810360008301526148a381614867565b9050919050565b7f496e73756666696369656e742066756e64730000000000000000000000000000600082015250565b60006148e06012836139f7565b91506148eb826148aa565b602082019050919050565b6000602082019050818103600083015261490f816148d3565b9050919050565b7f556e617574686f72697a6564206f7261636c6500000000000000000000000000600082015250565b600061494c6013836139f7565b915061495782614916565b602082019050919050565b6000602082019050818103600083015261497b8161493f565b9050919050565b7f50726f64756374206e6f74206c69737465640000000000000000000000000000600082015250565b60006149b86012836139f7565b91506149c382614982565b602082019050919050565b600060208201905081810360008301526149e7816149ab565b9050919050565b600081905092915050565b6000614a04826139ec565b614a0e81856149ee565b9350614a1e818560208601613a08565b80840191505092915050565b6000614a3682856149f9565b9150614a4282846149f9565b91508190509392505050565b7f496e636f7272656374207061796d656e7420616d6f756e740000000000000000600082015250565b6000614a846018836139f7565b9150614a8f82614a4e565b602082019050919050565b60006020820190508181036000830152614ab381614a77565b9050919050565b6000614ac58261394c565b9150614ad08361394c565b9250828201905080821115614ae857614ae76145ff565b5b92915050565b7f5075726368617365206c696d6974206578636565646564000000000000000000600082015250565b6000614b246017836139f7565b9150614b2f82614aee565b602082019050919050565b60006020820190508181036000830152614b5381614b17565b9050919050565b600081905092915050565b50565b6000614b75600083614b5a565b9150614b8082614b65565b600082019050919050565b6000614b9682614b68565b9150819050919050565b7f5061796d656e74206661696c6564000000000000000000000000000000000000600082015250565b6000614bd6600e836139f7565b9150614be182614ba0565b602082019050919050565b60006020820190508181036000830152614c0581614bc9565b9050919050565b7f4e487b7100000000000000000000000000000000000000000000000000000000600052603260045260246000fd5b60006040820190508181036000830152614c558185613a43565b90508181036020830152614c698184613a43565b90509392505050565b6000819050919050565b614c8d614c888261394c565b614c72565b82525050565b6000614c9f82866149f9565b9150614cab82856149f9565b9150614cb78284614c7c565b602082019150819050949350505050565b7f4e487b7100000000000000000000000000000000000000000000000000000000600052603160045260246000fd5b600081519050919050565b600082825260208201905092915050565b6000614d1e82614cf7565b614d288185614d02565b9350614d38818560208601613a08565b614d4181613a32565b840191505092915050565b6000608082019050614d616000830187613acb565b614d6e6020830186613acb565b614d7b60408301856139c2565b8181036060830152614d8d8184614d13565b905095945050505050565b600081519050614da78161385f565b92915050565b600060208284031215614dc357614dc2613829565b5b6000614dd184828501614d98565b91505092915050565b7f5469636b657420494420616c7265616479206578697374730000000000000000600082015250565b6000614e106018836139f7565b9150614e1b82614dda565b602082019050919050565b60006020820190508181036000830152614e3f81614e03565b9050919050565b7f5365617420616c7265616479206f636375706965640000000000000000000000600082015250565b6000614e7c6015836139f7565b9150614e8782614e46565b602082019050919050565b60006020820190508181036000830152614eab81614e6f565b9050919050565b60008190508160005260206000209050919050565b60006020601f8301049050919050565b600082821b905092915050565b600060088302614f147fffffffffffffffffffffffffffffffffffffffffffffffffffffffffffffffff82614ed7565b614f1e8683614ed7565b95508019841693508086168417925050509392505050565b6000614f51614f4c614f478461394c565b613cf7565b61394c565b9050919050565b6000819050919050565b614f6b83614f36565b614f7f614f7782614f58565b848454614ee4565b825550505050565b600090565b614f94614f87565b614f9f818484614f62565b505050565b5b81811015614fc357614fb8600082614f8c565b600181019050614fa5565b5050565b601f82111561500857614fd981614eb2565b614fe284614ec7565b81016020851015614ff1578190505b615005614ffd85614ec7565b830182614fa4565b50505b505050565b600082821c905092915050565b600061502b6000198460080261500d565b1980831691505092915050565b6000615044838361501a565b9150826002028217905092915050565b61505d826139ec565b67ffffffffffffffff81111561507657615075613f9e565b5b6150808254614473565b61508b828285614fc7565b600060209050601f8311600181146150be57600084156150ac578287015190505b6150b68582615038565b86555061511e565b601f1984166150cc86614eb2565b60005b828110156150f4578489015182556001820191506020850194506020810190506150cf565b86831015615111578489015161510d601f89168261501a565b8355505b6001600288020188555050505b505050505050565b600060408201905061513b6000830185613acb565b61514860208301846139c2565b9392505050565b7f4e487b7100000000000000000000000000000000000000000000000000000000600052601260045260246000fdfea26469706673582212208b4959f141e975dcf1d2eb01975f97f0a06698eb68f1e1ee9306743780deeb8a64736f6c634300081c0033",
  "linkReferences": {},
  "deployedLinkReferences": {}
}