{
  "_format": "hh-sol-artifact-1",
  "contractName": "DynamicPricingOracle",
  "sourceName": "contracts/DynamicPricingOracle.sol",
  "abi": [
    {
      "inputs": [
        {
          "internalType": "address",
          "name": "owner",
          "type": "address"
        }
      ],
      "stateMutability": "nonpayable",
      "type": "constructor"
    },
    {
      "inputs": [
        {
          "internalType": "address",
          "name": "owner",
          "type": "address"
        }
      ],
      "name": "OwnableInvalidOwner",
      "type": "error"
    },
    {
      "inputs": [
        {
          "internalType": "address",
          "name": "account",
          "type": "address"
        }
      ],
      "name": "OwnableUnauthorizedAccount",
      "type": "error"
    },
    {
      "anonymous": false,
      "inputs": [
        {
          "indexed": true,
          "internalType": "address",
          "name": "previousOwner",
          "type": "address"
        },
        {
          "indexed": true,
          "internalType": "address",
          "name": "newOwner",
          "type": "address"
        }
      ],
      "name": "OwnershipTransferred",
      "type": "event"
    },
    {
      "anonymous": false,
      "inputs": [
        {
          "indexed": false,
          "internalType": "uint256",
          "name": "requestId",
          "type": "uint256"
        },
        {
          "indexed": false,
          "internalType": "uint256",
          "name": "eventId",
          "type": "uint256"
        },
        {
          "indexed": false,
          "internalType": "address",
          "name": "requester",
          "type": "address"
        }
      ],
      "name": "Request",
      "type": "event"
    },
    {
      "anonymous": false,
      "inputs": [
        {
          "indexed": false,
          "internalType": "uint256",
          "name": "requestId",
          "type": "uint256"
        },
        {
          "indexed": false,
          "internalType": "uint256",
          "name": "eventId",
          "type": "uint256"
        },
        {
          "indexed": false,
          "internalType": "address",
          "name": "requester",
          "type": "address"
        }
      ],
      "name": "RequestPrice",
      "type": "event"
    },
    {
      "inputs": [],
      "name": "owner",
      "outputs": [
        {
          "internalType": "address",
          "name": "",
          "type": "address"
        }
      ],
      "stateMutability": "view",
      "type": "function"
    },
    {
      "inputs": [
        {
          "internalType": "uint256",
          "name": "requestId",
          "type": "uint256"
        },
        {
          "internalType": "uint256",
          "name": "price",
          "type": "uint256"
        }
      ],
      "name": "providePrice",
      "outputs": [],
      "stateMutability": "nonpayable",
      "type": "function"
    },
    {
      "inputs": [],
      "name": "renounceOwnership",
      "outputs": [],
      "stateMutability": "nonpayable",
      "type": "function"
    },
    {
      "inputs": [],
      "name": "requestCounter",
      "outputs": [
        {
          "internalType": "uint256",
          "name": "",
          "type": "uint256"
        }
      ],
      "stateMutability": "view",
      "type": "function"
    },
    {
      "inputs": [
        {
          "internalType": "uint256",
          "name": "eventId",
          "type": "uint256"
        },
        {
          "internalType": "address",
          "name": "requester",
          "type": "address"
        }
      ],
      "name": "requestDynamicPrice",
      "outputs": [],
      "stateMutability": "nonpayable",
      "type": "function"
    },
    {
      "inputs": [
        {
          "internalType": "uint256",
          "name": "",
          "type": "uint256"
        }
      ],
      "name": "requests",
      "outputs": [
        {
          "internalType": "address",
          "name": "",
          "type": "address"
        }
      ],
      "stateMutability": "view",
      "type": "function"
    },
    {
      "inputs": [
        {
          "internalType": "address",
          "name": "newOwner",
          "type": "address"
        }
      ],
      "name": "transferOwnership",
      "outputs": [],
      "stateMutability": "nonpayable",
      "type": "function"
    }
  ],
  "bytecode": "0x608060405234801561001057600080fd5b50604051610b02380380610b02833981810160405281019061003291906101e2565b80600073ffffffffffffffffffffffffffffffffffffffff168173ffffffffffffffffffffffffffffffffffffffff16036100a55760006040517f1e4fbdf700000000000000000000000000000000000000000000000000000000815260040161009c919061021e565b60405180910390fd5b6100b4816100bb60201b60201c565b5050610239565b60008060009054906101000a900473ffffffffffffffffffffffffffffffffffffffff169050816000806101000a81548173ffffffffffffffffffffffffffffffffffffffff021916908373ffffffffffffffffffffffffffffffffffffffff1602179055508173ffffffffffffffffffffffffffffffffffffffff168173ffffffffffffffffffffffffffffffffffffffff167f8be0079c531659141344cd1fd0a4f28419497f9722a3daafe3b4186f6b6457e060405160405180910390a35050565b600080fd5b600073ffffffffffffffffffffffffffffffffffffffff82169050919050565b60006101af82610184565b9050919050565b6101bf816101a4565b81146101ca57600080fd5b50565b6000815190506101dc816101b6565b92915050565b6000602082840312156101f8576101f761017f565b5b6000610206848285016101cd565b91505092915050565b610218816101a4565b82525050565b6000602082019050610233600083018461020f565b92915050565b6108ba806102486000396000f3fe608060405234801561001057600080fd5b506004361061007d5760003560e01c80638da5cb5b1161005b5780638da5cb5b146100d857806390dd0144146100f6578063973a814e14610112578063f2fde38b146101305761007d565b806312cd89b114610082578063715018a61461009e57806381d12c58146100a8575b600080fd5b61009c600480360381019061009791906105a4565b61014c565b005b6100a661026d565b005b6100c260048036038101906100bd91906105e4565b610281565b6040516100cf9190610652565b60405180910390f35b6100e06102b4565b6040516100ed9190610652565b60405180910390f35b610110600480360381019061010b9190610699565b6102dd565b005b61011a61038a565b60405161012791906106e8565b60405180910390f35b61014a60048036038101906101459190610703565b610390565b005b610154610416565b60006002600084815260200190815260200160002060009054906101000a900473ffffffffffffffffffffffffffffffffffffffff169050600073ffffffffffffffffffffffffffffffffffffffff168173ffffffffffffffffffffffffffffffffffffffff16036101fb576040517f08c379a00000000000000000000000000000000000000000000000000000000081526004016101f29061078d565b60405180910390fd5b8073ffffffffffffffffffffffffffffffffffffffff1663b0857fc684846040518363ffffffff1660e01b81526004016102369291906107ad565b600060405180830381600087803b15801561025057600080fd5b505af1158015610264573d6000803e3d6000fd5b50505050505050565b610275610416565b61027f600061049d565b565b60026020528060005260406000206000915054906101000a900473ffffffffffffffffffffffffffffffffffffffff1681565b60008060009054906101000a900473ffffffffffffffffffffffffffffffffffffffff16905090565b8060026000600154815260200190815260200160002060006101000a81548173ffffffffffffffffffffffffffffffffffffffff021916908373ffffffffffffffffffffffffffffffffffffffff1602179055507f22427dc7c8fba48c40232afc6134047171e453d8d5a9ef79defe0060071f2bb16001548383604051610366939291906107d6565b60405180910390a1600160008154809291906103819061083c565b91905055505050565b60015481565b610398610416565b600073ffffffffffffffffffffffffffffffffffffffff168173ffffffffffffffffffffffffffffffffffffffff160361040a5760006040517f1e4fbdf70000000000000000000000000000000000000000000000000000000081526004016104019190610652565b60405180910390fd5b6104138161049d565b50565b61041e610561565b73ffffffffffffffffffffffffffffffffffffffff1661043c6102b4565b73ffffffffffffffffffffffffffffffffffffffff161461049b5761045f610561565b6040517f118cdaa70000000000000000000000000000000000000000000000000000000081526004016104929190610652565b60405180910390fd5b565b60008060009054906101000a900473ffffffffffffffffffffffffffffffffffffffff169050816000806101000a81548173ffffffffffffffffffffffffffffffffffffffff021916908373ffffffffffffffffffffffffffffffffffffffff1602179055508173ffffffffffffffffffffffffffffffffffffffff168173ffffffffffffffffffffffffffffffffffffffff167f8be0079c531659141344cd1fd0a4f28419497f9722a3daafe3b4186f6b6457e060405160405180910390a35050565b600033905090565b600080fd5b6000819050919050565b6105818161056e565b811461058c57600080fd5b50565b60008135905061059e81610578565b92915050565b600080604083850312156105bb576105ba610569565b5b60006105c98582860161058f565b92505060206105da8582860161058f565b9150509250929050565b6000602082840312156105fa576105f9610569565b5b60006106088482850161058f565b91505092915050565b600073ffffffffffffffffffffffffffffffffffffffff82169050919050565b600061063c82610611565b9050919050565b61064c81610631565b82525050565b60006020820190506106676000830184610643565b92915050565b61067681610631565b811461068157600080fd5b50565b6000813590506106938161066d565b92915050565b600080604083850312156106b0576106af610569565b5b60006106be8582860161058f565b92505060206106cf85828601610684565b9150509250929050565b6106e28161056e565b82525050565b60006020820190506106fd60008301846106d9565b92915050565b60006020828403121561071957610718610569565b5b600061072784828501610684565b91505092915050565b600082825260208201905092915050565b7f496e76616c696420726571756573744964000000000000000000000000000000600082015250565b6000610777601183610730565b915061078282610741565b602082019050919050565b600060208201905081810360008301526107a68161076a565b9050919050565b60006040820190506107c260008301856106d9565b6107cf60208301846106d9565b9392505050565b60006060820190506107eb60008301866106d9565b6107f860208301856106d9565b6108056040830184610643565b949350505050565b7f4e487b7100000000000000000000000000000000000000000000000000000000600052601160045260246000fd5b60006108478261056e565b91507fffffffffffffffffffffffffffffffffffffffffffffffffffffffffffffffff82036108795761087861080d565b5b60018201905091905056fea2646970667358221220f591a3c7b451a6c79bf87040edd400377ce8b54c8ee75005e5b350ca2c63a91064736f6c634300081c0033",
  "linkReferences": {},
  "deployedLinkReferences": {}
}